{"abi":[{"type":"constructor","inputs":[],"stateMutability":"nonpayable"},{"type":"function","name":"COMMIT_DURATION","inputs":[],"outputs":[{"name":"","type":"uint256","internalType":"uint256"}],"stateMutability":"view"},{"type":"function","name":"MAX_BIDDERS","inputs":[],"outputs":[{"name":"","type":"uint256","internalType":"uint256"}],"stateMutability":"view"},{"type":"function","name":"REVEAL_DURATION","inputs":[],"outputs":[{"name":"","type":"uint256","internalType":"uint256"}],"stateMutability":"view"},{"type":"function","name":"addBidder","inputs":[{"name":"bidder","type":"address","internalType":"address"}],"outputs":[],"stateMutability":"nonpayable"},{"type":"function","name":"auctionBidders","inputs":[{"name":"","type":"bytes32","internalType":"bytes32"},{"name":"","type":"uint256","internalType":"uint256"}],"outputs":[{"name":"","type":"address","internalType":"address"}],"stateMutability":"view"},{"type":"function","name":"auctions","inputs":[{"name":"","type":"bytes32","internalType":"bytes32"}],"outputs":[{"name":"commitStartTime","type":"uint256","internalType":"uint256"},{"name":"commitEndTime","type":"uint256","internalType":"uint256"},{"name":"revealEndTime","type":"uint256","internalType":"uint256"},{"name":"finalized","type":"bool","internalType":"bool"},{"name":"winner","type":"address","internalType":"address"},{"name":"winningBid","type":"uint256","internalType":"uint256"},{"name":"revealCounter","type":"uint256","internalType":"uint256"},{"name":"bidCount","type":"uint256","internalType":"uint256"}],"stateMutability":"view"},{"type":"function","name":"bidders","inputs":[{"name":"","type":"address","internalType":"address"}],"outputs":[{"name":"","type":"bool","internalType":"bool"}],"stateMutability":"view"},{"type":"function","name":"commitBid","inputs":[{"name":"bundleHash","type":"bytes32","internalType":"bytes32"},{"name":"bidHash","type":"bytes32","internalType":"bytes32"}],"outputs":[],"stateMutability":"nonpayable"},{"type":"function","name":"commitments","inputs":[{"name":"","type":"bytes32","internalType":"bytes32"},{"name":"","type":"address","internalType":"address"}],"outputs":[{"name":"hash","type":"bytes32","internalType":"bytes32"},{"name":"revealed","type":"bool","internalType":"bool"},{"name":"quotedCostScaled","type":"uint256","internalType":"uint256"},{"name":"revealOrder","type":"uint256","internalType":"uint256"}],"stateMutability":"view"},{"type":"function","name":"computeCommitmentHash","inputs":[{"name":"bundleHash","type":"bytes32","internalType":"bytes32"},{"name":"bidder","type":"address","internalType":"address"},{"name":"quotedCostScaled","type":"uint256","internalType":"uint256"},{"name":"salt","type":"bytes32","internalType":"bytes32"}],"outputs":[{"name":"hash","type":"bytes32","internalType":"bytes32"}],"stateMutability":"pure"},{"type":"function","name":"createAuction","inputs":[{"name":"bundleHash","type":"bytes32","internalType":"bytes32"}],"outputs":[],"stateMutability":"nonpayable"},{"type":"function","name":"finalizeAuction","inputs":[{"name":"bundleHash","type":"bytes32","internalType":"bytes32"}],"outputs":[],"stateMutability":"nonpayable"},{"type":"function","name":"getAuction","inputs":[{"name":"bundleHash","type":"bytes32","internalType":"bytes32"}],"outputs":[{"name":"commitStartTime","type":"uint256","internalType":"uint256"},{"name":"commitEndTime","type":"uint256","internalType":"uint256"},{"name":"revealEndTime","type":"uint256","internalType":"uint256"},{"name":"finalized","type":"bool","internalType":"bool"},{"name":"winner","type":"address","internalType":"address"},{"name":"winningBid","type":"uint256","internalType":"uint256"},{"name":"bidCount","type":"uint256","internalType":"uint256"}],"stateMutability":"view"},{"type":"function","name":"getAuctionPhase","inputs":[{"name":"bundleHash","type":"bytes32","internalType":"bytes32"}],"outputs":[{"name":"phase","type":"uint8","internalType":"uint8"}],"stateMutability":"view"},{"type":"function","name":"getCommitment","inputs":[{"name":"bundleHash","type":"bytes32","internalType":"bytes32"},{"name":"bidder","type":"address","internalType":"address"}],"outputs":[{"name":"hash","type":"bytes32","internalType":"bytes32"},{"name":"revealed","type":"bool","internalType":"bool"},{"name":"quotedCostScaled","type":"uint256","internalType":"uint256"},{"name":"revealOrder","type":"uint256","internalType":"uint256"}],"stateMutability":"view"},{"type":"function","name":"isBidderWhitelisted","inputs":[{"name":"bidder","type":"address","internalType":"address"}],"outputs":[{"name":"isWhitelisted","type":"bool","internalType":"bool"}],"stateMutability":"view"},{"type":"function","name":"owner","inputs":[],"outputs":[{"name":"","type":"address","internalType":"address"}],"stateMutability":"view"},{"type":"function","name":"removeBidder","inputs":[{"name":"bidder","type":"address","internalType":"address"}],"outputs":[],"stateMutability":"nonpayable"},{"type":"function","name":"revealBid","inputs":[{"name":"bundleHash","type":"bytes32","internalType":"bytes32"},{"name":"quotedCostScaled","type":"uint256","internalType":"uint256"},{"name":"salt","type":"bytes32","internalType":"bytes32"}],"outputs":[],"stateMutability":"nonpayable"},{"type":"function","name":"transferOwnership","inputs":[{"name":"newOwner","type":"address","internalType":"address"}],"outputs":[],"stateMutability":"nonpayable"},{"type":"event","name":"AuctionCreated","inputs":[{"name":"bundleHash","type":"bytes32","indexed":true,"internalType":"bytes32"},{"name":"commitEndTime","type":"uint256","indexed":false,"internalType":"uint256"},{"name":"revealEndTime","type":"uint256","indexed":false,"internalType":"uint256"}],"anonymous":false},{"type":"event","name":"AuctionFinalized","inputs":[{"name":"bundleHash","type":"bytes32","indexed":true,"internalType":"bytes32"},{"name":"winner","type":"address","indexed":true,"internalType":"address"},{"name":"quotedCostScaled","type":"uint256","indexed":false,"internalType":"uint256"}],"anonymous":false},{"type":"event","name":"AuctionUnsold","inputs":[{"name":"bundleHash","type":"bytes32","indexed":true,"internalType":"bytes32"}],"anonymous":false},{"type":"event","name":"BidCommitted","inputs":[{"name":"bundleHash","type":"bytes32","indexed":true,"internalType":"bytes32"},{"name":"bidder","type":"address","indexed":true,"internalType":"address"}],"anonymous":false},{"type":"event","name":"BidRevealed","inputs":[{"name":"bundleHash","type":"bytes32","indexed":true,"internalType":"bytes32"},{"name":"bidder","type":"address","indexed":true,"internalType":"address"},{"name":"quotedCostScaled","type":"uint256","indexed":false,"internalType":"uint256"}],"anonymous":false},{"type":"event","name":"BidderAdded","inputs":[{"name":"bidder","type":"address","indexed":true,"internalType":"address"}],"anonymous":false},{"type":"event","name":"BidderRemoved","inputs":[{"name":"bidder","type":"address","indexed":true,"internalType":"address"}],"anonymous":false},{"type":"event","name":"OwnershipTransferred","inputs":[{"name":"previousOwner","type":"address","indexed":true,"internalType":"address"},{"name":"newOwner","type":"address","indexed":true,"internalType":"address"}],"anonymous":false},{"type":"error","name":"AuctionAlreadyExists","inputs":[]},{"type":"error","name":"AuctionAlreadyFinalized","inputs":[]},{"type":"error","name":"AuctionDoesNotExist","inputs":[]},{"type":"error","name":"AuctionNotReadyForFinalization","inputs":[]},{"type":"error","name":"BidAlreadyRevealed","inputs":[]},{"type":"error","name":"BidderNotWhitelisted","inputs":[]},{"type":"error","name":"CommitPhaseNotActive","inputs":[]},{"type":"error","name":"InvalidCommitmentHash","inputs":[]},{"type":"error","name":"MaxBiddersReached","inputs":[]},{"type":"error","name":"NoBidToReveal","inputs":[]},{"type":"error","name":"OnlyOwner","inputs":[]},{"type":"error","name":"RevealPhaseNotActive","inputs":[]}],"bytecode":{"object":"0x608060405234801561000f575f80fd5b505f80546001600160a01b0319163390811782556040519091907f8be0079c531659141344cd1fd0a4f28419497f9722a3daafe3b4186f6b6457e0908290a36111218061005b5f395ff3fe608060405234801561000f575f80fd5b5060043610610127575f3560e01c8063972b7f14116100a9578063e01067991161006e578063e010679914610436578063ef39fd0614610449578063f2fde38b1461045c578063f6fe896d1461046f578063fcc8f793146104bb575f80fd5b8063972b7f1414610353578063983b94fb146103b4578063b35e2860146103c7578063b39773a614610425578063b971e2fd1461042d575f80fd5b80634cc4f50d116100ef5780634cc4f50d146102da5780635264b12e146102f05780635e7e5edf146103035780638cebfe47146103165780638da5cb5b14610341575f80fd5b806306f26cee1461012b57806315924b5b146101405780631edbc5be146101db57806322f9bda21461027a578063289bce371461029f575b5f80fd5b61013e610139366004610f95565b6104dd565b005b61019861014e366004610fbe565b5f90815260016020819052604090912080549181015460028201546003830154600484015460069094015494959294919360ff8216936101009092046001600160a01b0316929091565b6040805197885260208801969096529486019390935290151560608501526001600160a01b0316608084015260a083015260c082015260e0015b60405180910390f35b6102366101e9366004610fbe565b600160208190525f918252604090912080549181015460028201546003830154600484015460058501546006909501549394929360ff8316936101009093046001600160a01b0316929088565b6040805198895260208901979097529587019490945291151560608601526001600160a01b0316608085015260a084015260c083015260e0820152610100016101d2565b61028d610288366004610fbe565b610684565b60405160ff90911681526020016101d2565b6102ca6102ad366004610ff0565b6001600160a01b03165f9081526003602052604090205460ff1690565b60405190151581526020016101d2565b6102e2601481565b6040519081526020016101d2565b61013e6102fe366004610ff0565b6106ea565b61013e610311366004611010565b61075c565b610329610324366004611010565b610910565b6040516001600160a01b0390911681526020016101d2565b5f54610329906001600160a01b031681565b610394610361366004611030565b600260208181525f938452604080852090915291835291208054600182015492820154600390920154909260ff16919084565b6040805194855292151560208501529183015260608201526080016101d2565b61013e6103c2366004610fbe565b610944565b6102e26103d536600461105a565b6040805160208082019690965260609490941b6bffffffffffffffffffffffff19168482015260548401929092526074808401919091528151808403909101815260949092019052805191012090565b6102e2607881565b6102e261012c81565b61013e610444366004610ff0565b610bbd565b61013e610457366004610fbe565b610c86565b61013e61046a366004610ff0565b610e21565b61039461047d366004611030565b5f9182526002602081815260408085206001600160a01b0394909416855292905291208054600182015492820154600390920154909360ff90931692565b6102ca6104c9366004610ff0565b60036020525f908152604090205460ff1681565b5f8381526001602052604081205484910361050b5760405163e6759c6760e01b815260040160405180910390fd5b5f8481526001602081815260408084206002835281852033865290925290922090820154421080610540575081600201544210155b1561055e576040516313f10bb360e01b815260040160405180910390fd5b805461057d57604051630f5c68df60e01b815260040160405180910390fd5b600181015460ff16156105a357604051638509cf4f60e01b815260040160405180910390fd5b6040805160208082018990523360601b6bffffffffffffffffffffffff19168284015260548201889052607480830188905283518084039091018152609490920190925280519101208154811461060d5760405163029dd5dd60e41b815260040160405180910390fd5b600583018054905f61061e836110a6565b90915550506001828101805460ff191690911790556002820186905560058301546003830155604051868152339088907f9c253a2ca87d91c2658cfbfcc3d6081283acc3cf95c2961667a858b531ec491f9060200160405180910390a350505050505050565b5f818152600160205260408120805482036106a157505f92915050565b600381015460ff16156106b75750600392915050565b80600101544210156106cc5750600192915050565b80600201544210156106e15750600292915050565b50600492915050565b5f546001600160a01b0316331461071457604051635fc483c560e01b815260040160405180910390fd5b6001600160a01b0381165f81815260036020526040808220805460ff19169055517f6aeb04fbbd4c59cfb197ca6a9e9477ce365b10f79241981c558d2ae1b4f96a749190a250565b335f9081526003602052604090205460ff1661078b57604051633369fde960e11b815260040160405180910390fd5b5f828152600160205260408120548391036107b95760405163e6759c6760e01b815260040160405180910390fd5b5f83815260016020526040902080544210806107d9575080600101544210155b156107f75760405163bded4bdb60e01b815260040160405180910390fd5b601481600601541061081c576040516387ba755160e01b815260040160405180910390fd5b5f84815260026020908152604080832033845290915290205461087d575f848152600460209081526040822080546001810182559083529082200180546001600160a01b0319163317905560068201805491610877836110a6565b91905055505b604080516080810182528481525f6020808301828152838501838152606085018481528a8552600280855287862033808852955287862096518755925160018701805460ff1916911515919091179055905191850191909155516003909301929092559151909186917fc2a4b63c9be2384c969b2a3514d9223890d08c1e207eb74ad8e5bd9c1610224b9190a350505050565b6004602052815f5260405f208181548110610929575f80fd5b5f918252602090912001546001600160a01b03169150829050565b5f818152600160205260408120548291036109725760405163e6759c6760e01b815260040160405180910390fd5b5f828152600160205260409020600381015460ff16156109a55760405163059fb38360e51b815260040160405180910390fd5b80600101544210156109ca576040516308a18ca760e21b815260040160405180910390fd5b5f6109d484610efa565b6002830154909150421015811580156109eb575080155b15610a09576040516308a18ca760e21b815260040160405180910390fd5b5f8581526004602052604081205f19908190835b815481108015610a2d5750601481105b15610b00575f8a815260026020526040812083548290859085908110610a5557610a556110be565b5f9182526020808320909101546001600160a01b031683528201929092526040019020600181015490915060ff16610a8d5750610aee565b8481600201541080610ab05750848160020154148015610ab05750838160030154105b15610aec578060020154945080600301549350828281548110610ad557610ad56110be565b5f918252602090912001546001600160a01b031695505b505b80610af8816110a6565b915050610a1d565b5060038701805460ff191660011790556001600160a01b038416610b4d5760405189907f26627ac75b2a115ea6f3c8912095748115c2f53233c89f96fb8d1f6a198d783d905f90a2610bb2565b600387018054610100600160a81b0319166101006001600160a01b03871690810291909117909155600488018490556040518481528a907fd5e3e604def17bd0c5b7b35a53a73dd0f20a6855f5672e207c4dade80e8b7b959060200160405180910390a35b505050505050505050565b5f546001600160a01b03163314610be757604051635fc483c560e01b815260040160405180910390fd5b6001600160a01b038116610c3b5760405162461bcd60e51b8152602060048201526016602482015275496e76616c696420626964646572206164647265737360501b60448201526064015b60405180910390fd5b6001600160a01b0381165f81815260036020526040808220805460ff19166001179055517f28418e7fdb377cb0e34aeae698ff58a0a651708749b09a39077d6042587af6d19190a250565b5f546001600160a01b03163314610cb057604051635fc483c560e01b815260040160405180910390fd5b5f8181526001602052604090205415610cdb57604051628b039960e31b815260040160405180910390fd5b425f610ce961012c836110d2565b90505f610cf76078836110d2565b90506040518061010001604052808481526020018381526020018281526020015f151581526020015f6001600160a01b031681526020015f81526020015f81526020015f81525060015f8681526020019081526020015f205f820151815f015560208201518160010155604082015181600201556060820151816003015f6101000a81548160ff02191690831515021790555060808201518160030160016101000a8154816001600160a01b0302191690836001600160a01b0316021790555060a0820151816004015560c0820151816005015560e08201518160060155905050837f74c87b9f0f97c53b931ec15fc0f38b0d7669a958d35ed1fe97386d98a9e168ac8383604051610e13929190918252602082015260400190565b60405180910390a250505050565b5f546001600160a01b03163314610e4b57604051635fc483c560e01b815260040160405180910390fd5b6001600160a01b038116610ea15760405162461bcd60e51b815260206004820152601960248201527f4e6577206f776e6572206973207a65726f2061646472657373000000000000006044820152606401610c32565b5f80546040516001600160a01b03808516939216917f8be0079c531659141344cd1fd0a4f28419497f9722a3daafe3b4186f6b6457e091a35f80546001600160a01b0319166001600160a01b0392909216919091179055565b5f818152600460205260408120815b815481108015610f195750601481105b15610f8b5760025f8581526020019081526020015f205f838381548110610f4257610f426110be565b5f9182526020808320909101546001600160a01b0316835282019290925260400190206001015460ff16610f7957505f9392505050565b80610f83816110a6565b915050610f09565b5060019392505050565b5f805f60608486031215610fa7575f80fd5b505081359360208301359350604090920135919050565b5f60208284031215610fce575f80fd5b5035919050565b80356001600160a01b0381168114610feb575f80fd5b919050565b5f60208284031215611000575f80fd5b61100982610fd5565b9392505050565b5f8060408385031215611021575f80fd5b50508035926020909101359150565b5f8060408385031215611041575f80fd5b8235915061105160208401610fd5565b90509250929050565b5f805f806080858703121561106d575f80fd5b8435935061107d60208601610fd5565b93969395505050506040820135916060013590565b634e487b7160e01b5f52601160045260245ffd5b5f600182016110b7576110b7611092565b5060010190565b634e487b7160e01b5f52603260045260245ffd5b808201808211156110e5576110e5611092565b9291505056fea26469706673582212204e5c807139871629bebb7f29dfb343890b35836d31fc7903744eacb4c879351564736f6c63430008180033","linkReferences":{}},"methodIdentifiers":{"COMMIT_DURATION()":"b971e2fd","MAX_BIDDERS()":"4cc4f50d","REVEAL_DURATION()":"b39773a6","addBidder(address)":"e0106799","auctionBidders(bytes32,uint256)":"8cebfe47","auctions(bytes32)":"1edbc5be","bidders(address)":"fcc8f793","commitBid(bytes32,bytes32)":"5e7e5edf","commitments(bytes32,address)":"972b7f14","computeCommitmentHash(bytes32,address,uint256,bytes32)":"b35e2860","createAuction(bytes32)":"ef39fd06","finalizeAuction(bytes32)":"983b94fb","getAuction(bytes32)":"15924b5b","getAuctionPhase(bytes32)":"22f9bda2","getCommitment(bytes32,address)":"f6fe896d","isBidderWhitelisted(address)":"289bce37","owner()":"8da5cb5b","removeBidder(address)":"5264b12e","revealBid(bytes32,uint256,bytes32)":"06f26cee","transferOwnership(address)":"f2fde38b"},"id":19}