{"abi":[{"type":"constructor","inputs":[],"stateMutability":"nonpayable"},{"type":"function","name":"authorizeRecorder","inputs":[{"name":"recorder","type":"address","internalType":"address"}],"outputs":[],"stateMutability":"nonpayable"},{"type":"function","name":"authorizedRecorders","inputs":[{"name":"","type":"address","internalType":"address"}],"outputs":[{"name":"","type":"bool","internalType":"bool"}],"stateMutability":"view"},{"type":"function","name":"getPayment","inputs":[{"name":"bundleHash","type":"bytes32","internalType":"bytes32"}],"outputs":[{"name":"winner","type":"address","internalType":"address"},{"name":"amountPaidScaled","type":"uint256","internalType":"uint256"},{"name":"txHash","type":"bytes32","internalType":"bytes32"},{"name":"timestamp","type":"uint256","internalType":"uint256"},{"name":"recorded","type":"bool","internalType":"bool"}],"stateMutability":"view"},{"type":"function","name":"isAuthorizedRecorder","inputs":[{"name":"recorder","type":"address","internalType":"address"}],"outputs":[{"name":"isAuthorized","type":"bool","internalType":"bool"}],"stateMutability":"view"},{"type":"function","name":"isPaymentRecorded","inputs":[{"name":"bundleHash","type":"bytes32","internalType":"bytes32"}],"outputs":[{"name":"isRecorded","type":"bool","internalType":"bool"}],"stateMutability":"view"},{"type":"function","name":"owner","inputs":[],"outputs":[{"name":"","type":"address","internalType":"address"}],"stateMutability":"view"},{"type":"function","name":"payments","inputs":[{"name":"","type":"bytes32","internalType":"bytes32"}],"outputs":[{"name":"bundleHash","type":"bytes32","internalType":"bytes32"},{"name":"winner","type":"address","internalType":"address"},{"name":"amountPaidScaled","type":"uint256","internalType":"uint256"},{"name":"txHash","type":"bytes32","internalType":"bytes32"},{"name":"timestamp","type":"uint256","internalType":"uint256"},{"name":"recorded","type":"bool","internalType":"bool"}],"stateMutability":"view"},{"type":"function","name":"recordPayment","inputs":[{"name":"bundleHash","type":"bytes32","internalType":"bytes32"},{"name":"winner","type":"address","internalType":"address"},{"name":"amountPaidScaled","type":"uint256","internalType":"uint256"},{"name":"txHash","type":"bytes32","internalType":"bytes32"}],"outputs":[],"stateMutability":"nonpayable"},{"type":"function","name":"revokeRecorder","inputs":[{"name":"recorder","type":"address","internalType":"address"}],"outputs":[],"stateMutability":"nonpayable"},{"type":"function","name":"rideAuction","inputs":[],"outputs":[{"name":"","type":"address","internalType":"address"}],"stateMutability":"view"},{"type":"function","name":"setRideAuction","inputs":[{"name":"_rideAuction","type":"address","internalType":"address"}],"outputs":[],"stateMutability":"nonpayable"},{"type":"function","name":"transferOwnership","inputs":[{"name":"newOwner","type":"address","internalType":"address"}],"outputs":[],"stateMutability":"nonpayable"},{"type":"event","name":"OwnershipTransferred","inputs":[{"name":"previousOwner","type":"address","indexed":true,"internalType":"address"},{"name":"newOwner","type":"address","indexed":true,"internalType":"address"}],"anonymous":false},{"type":"event","name":"PaymentExecuted","inputs":[{"name":"bundleHash","type":"bytes32","indexed":true,"internalType":"bytes32"},{"name":"winner","type":"address","indexed":true,"internalType":"address"},{"name":"amountPaidScaled","type":"uint256","indexed":false,"internalType":"uint256"},{"name":"txHash","type":"bytes32","indexed":false,"internalType":"bytes32"}],"anonymous":false},{"type":"event","name":"RecorderAuthorized","inputs":[{"name":"recorder","type":"address","indexed":true,"internalType":"address"}],"anonymous":false},{"type":"event","name":"RecorderRevoked","inputs":[{"name":"recorder","type":"address","indexed":true,"internalType":"address"}],"anonymous":false},{"type":"event","name":"RideAuctionSet","inputs":[{"name":"rideAuction","type":"address","indexed":true,"internalType":"address"}],"anonymous":false},{"type":"error","name":"InvalidAmount","inputs":[]},{"type":"error","name":"InvalidWinner","inputs":[]},{"type":"error","name":"OnlyAuthorizedRecorder","inputs":[]},{"type":"error","name":"OnlyOwner","inputs":[]},{"type":"error","name":"PaymentAlreadyRecorded","inputs":[]}],"bytecode":{"object":"0x608060405234801561000f575f80fd5b505f80546001600160a01b0319163390811782556040519091907f8be0079c531659141344cd1fd0a4f28419497f9722a3daafe3b4186f6b6457e0908290a36108068061005b5f395ff3fe608060405234801561000f575f80fd5b50600436106100b1575f3560e01c8063ac9a5e9a1161006e578063ac9a5e9a146101e3578063af23e87c14610205578063cb3f6fc914610218578063e66eefc81461023d578063f2fde38b146102bd578063f425da89146102d0575f80fd5b80630716326d146100b5578063174bd849146101435780636ba49fa014610158578063809497da1461016b5780638da5cb5b146101a65780638f7b9359146101d0575b5f80fd5b6101076100c3366004610746565b600360208190525f918252604090912080546001820154600283015493830154600484015460059094015492946001600160a01b0390921693919290919060ff1686565b604080519687526001600160a01b0390951660208701529385019290925260608401526080830152151560a082015260c0015b60405180910390f35b610156610151366004610778565b6102e3565b005b610156610166366004610778565b6103b1565b610196610179366004610778565b6001600160a01b03165f9081526002602052604090205460ff1690565b604051901515815260200161013a565b5f546101b8906001600160a01b031681565b6040516001600160a01b03909116815260200161013a565b6101566101de366004610798565b61047c565b6101966101f1366004610778565b60026020525f908152604090205460ff1681565b610156610213366004610778565b6105fb565b610196610226366004610746565b5f9081526003602052604090206005015460ff1690565b61028961024b366004610746565b5f908152600360208190526040909120600181015460028201549282015460048301546005909301546001600160a01b039092169490929160ff1690565b604080516001600160a01b03909616865260208601949094529284019190915260608301521515608082015260a00161013a565b6101566102cb366004610778565b61066d565b6001546101b8906001600160a01b031681565b5f546001600160a01b0316331461030d57604051635fc483c560e01b815260040160405180910390fd5b6001600160a01b0381166103685760405162461bcd60e51b815260206004820152601760248201527f496e76616c69642061756374696f6e206164647265737300000000000000000060448201526064015b60405180910390fd5b600180546001600160a01b0319166001600160a01b0383169081179091556040517fabe6a19bc8a399ba5658173123549ccb9de788d9c55c98224993069f1407807a905f90a250565b5f546001600160a01b031633146103db57604051635fc483c560e01b815260040160405180910390fd5b6001600160a01b0381166104315760405162461bcd60e51b815260206004820152601860248201527f496e76616c6964207265636f7264657220616464726573730000000000000000604482015260640161035f565b6001600160a01b0381165f81815260026020526040808220805460ff19166001179055517f1593ddc0d82cbbad9431bba77edb1c641cddb2ae930b924e6316f525e3a0c96d9190a250565b335f9081526002602052604090205460ff166104ab57604051630928bc5160e11b815260040160405180910390fd5b6001600160a01b0383166104d2576040516393a5f3c760e01b815260040160405180910390fd5b815f036104f25760405163162908e360e11b815260040160405180910390fd5b5f8481526003602052604090206005015460ff16156105245760405163bde56c7560e01b815260040160405180910390fd5b6040805160c0810182528581526001600160a01b038581166020808401828152848601888152606086018881524260808801908152600160a089018181525f8f81526003808952908c90209a518b559551918a0180546001600160a01b031916929099169190911790975591516002880155519186019190915551600485015591516005909301805460ff1916931515939093179092558251858152908101849052909186917f756ad05355eaee75b04e423ae52915105c02d4a3fc70eaddf2d437bbe24a0fd2910160405180910390a350505050565b5f546001600160a01b0316331461062557604051635fc483c560e01b815260040160405180910390fd5b6001600160a01b0381165f81815260026020526040808220805460ff19169055517fbeab9f6afe6eb7afc2066c798cea7d48fcf134893b3cf4c5bc030b244864a8739190a250565b5f546001600160a01b0316331461069757604051635fc483c560e01b815260040160405180910390fd5b6001600160a01b0381166106ed5760405162461bcd60e51b815260206004820152601960248201527f4e6577206f776e6572206973207a65726f206164647265737300000000000000604482015260640161035f565b5f80546040516001600160a01b03808516939216917f8be0079c531659141344cd1fd0a4f28419497f9722a3daafe3b4186f6b6457e091a35f80546001600160a01b0319166001600160a01b0392909216919091179055565b5f60208284031215610756575f80fd5b5035919050565b80356001600160a01b0381168114610773575f80fd5b919050565b5f60208284031215610788575f80fd5b6107918261075d565b9392505050565b5f805f80608085870312156107ab575f80fd5b843593506107bb6020860161075d565b9396939550505050604082013591606001359056fea26469706673582212208d699aceda8e55f2228951b56c44e2ff8ca83cabd4946a481615e49695db281164736f6c63430008180033","linkReferences":{}},"methodIdentifiers":{"authorizeRecorder(address)":"6ba49fa0","authorizedRecorders(address)":"ac9a5e9a","getPayment(bytes32)":"e66eefc8","isAuthorizedRecorder(address)":"809497da","isPaymentRecorded(bytes32)":"cb3f6fc9","owner()":"8da5cb5b","payments(bytes32)":"0716326d","recordPayment(bytes32,address,uint256,bytes32)":"8f7b9359","revokeRecorder(address)":"af23e87c","rideAuction()":"f425da89","setRideAuction(address)":"174bd849","transferOwnership(address)":"f2fde38b"},"id":22}